:100000000C9446000C945D000C945D000C945D0013
:100010000C945D000C945D000C945D000C945D00EC
:100020000C945D000C945D000C945D000C945D00DC
:100030000C945D000C945D000C945D000C945D00CC
:100040000C945D000C945D000C945D000C945D00BC
:100050000C945D000C945D000C945D000C945D00AC
:100060000C945D000C945D000C945D000C945D009C
:100070000C945D000C945D000C945D000C945D008C
:100080000C945D000C945D000C945D0011241FBE67
:10009000CFEFD0E4DEBFCDBF11E0A0E0B1E0E8E1FA
:1000A000F1E000E00BBF02C007900D92AE30B10747
:1000B000D9F70E9470000C948A000C940000CF9332
:1000C000C82F8A3019F48DE00E945F008091C00033
:1000D00085FFFCCFC093C60080E090E0CF910895EB
:1000E00011B88FEF82B914B885B987B918B890E004
:1000F00080B123B104C0382F3170930F86958111E0
:10010000FACF04C0822F8170980F26952111FACF63
:0801100098B9EECFF894FFCF7F
:0E01180000000002000000005F000000000078
:00000001FF
